{
  "_format": "hh-sol-artifact-1",
  "contractName": "XYZSwapRouter02",
  "sourceName": "contracts/XYZSwapRouter02.sol",
  "abi": [
    {
      "inputs": [
        {
          "internalType": "address",
          "name": "_factory",
          "type": "address"
        },
        {
          "internalType": "contract IWETH",
          "name": "_weth",
          "type": "address"
        }
      ],
      "stateMutability": "nonpayable",
      "type": "constructor"
    },
    {
      "inputs": [
        {
          "internalType": "contract IERC20",
          "name": "tokenA",
          "type": "address"
        },
        {
          "internalType": "contract IERC20",
          "name": "tokenB",
          "type": "address"
        },
        {
          "internalType": "address",
          "name": "pair",
          "type": "address"
        },
        {
          "internalType": "uint256",
          "name": "amountADesired",
          "type": "uint256"
        },
        {
          "internalType": "uint256",
          "name": "amountBDesired",
          "type": "uint256"
        },
        {
          "internalType": "uint256",
          "name": "amountAMin",
          "type": "uint256"
        },
        {
          "internalType": "uint256",
          "name": "amountBMin",
          "type": "uint256"
        },
        {
          "internalType": "address",
          "name": "to",
          "type": "address"
        },
        {
          "internalType": "uint256",
          "name": "deadline",
          "type": "uint256"
        }
      ],
      "name": "addLiquidity",
      "outputs": [
        {
          "internalType": "uint256",
          "name": "amountA",
          "type": "uint256"
        },
        {
          "internalType": "uint256",
          "name": "amountB",
          "type": "uint256"
        },
        {
          "internalType": "uint256",
          "name": "liquidity",
          "type": "uint256"
        }
      ],
      "stateMutability": "nonpayable",
      "type": "function"
    },
    {
      "inputs": [
        {
          "internalType": "contract IERC20",
          "name": "token",
          "type": "address"
        },
        {
          "internalType": "address",
          "name": "pair",
          "type": "address"
        },
        {
          "internalType": "uint256",
          "name": "amountTokenDesired",
          "type": "uint256"
        },
        {
          "internalType": "uint256",
          "name": "amountTokenMin",
          "type": "uint256"
        },
        {
          "internalType": "uint256",
          "name": "amountETHMin",
          "type": "uint256"
        },
        {
          "internalType": "address",
          "name": "to",
          "type": "address"
        },
        {
          "internalType": "uint256",
          "name": "deadline",
          "type": "uint256"
        }
      ],
      "name": "addLiquidityETH",
      "outputs": [
        {
          "internalType": "uint256",
          "name": "amountToken",
          "type": "uint256"
        },
        {
          "internalType": "uint256",
          "name": "amountETH",
          "type": "uint256"
        },
        {
          "internalType": "uint256",
          "name": "liquidity",
          "type": "uint256"
        }
      ],
      "stateMutability": "payable",
      "type": "function"
    },
    {
      "inputs": [
        {
          "internalType": "contract IERC20",
          "name": "tokenA",
          "type": "address"
        },
        {
          "internalType": "contract IERC20",
          "name": "tokenB",
          "type": "address"
        },
        {
          "internalType": "uint32",
          "name": "ampBps",
          "type": "uint32"
        },
        {
          "internalType": "uint256",
          "name": "amountADesired",
          "type": "uint256"
        },
        {
          "internalType": "uint256",
          "name": "amountBDesired",
          "type": "uint256"
        },
        {
          "internalType": "uint256",
          "name": "amountAMin",
          "type": "uint256"
        },
        {
          "internalType": "uint256",
          "name": "amountBMin",
          "type": "uint256"
        },
        {
          "internalType": "address",
          "name": "to",
          "type": "address"
        },
        {
          "internalType": "uint256",
          "name": "deadline",
          "type": "uint256"
        }
      ],
      "name": "addLiquidityNewPool",
      "outputs": [
        {
          "internalType": "uint256",
          "name": "amountA",
          "type": "uint256"
        },
        {
          "internalType": "uint256",
          "name": "amountB",
          "type": "uint256"
        },
        {
          "internalType": "uint256",
          "name": "liquidity",
          "type": "uint256"
        }
      ],
      "stateMutability": "nonpayable",
      "type": "function"
    },
    {
      "inputs": [
        {
          "internalType": "contract IERC20",
          "name": "token",
          "type": "address"
        },
        {
          "internalType": "uint32",
          "name": "ampBps",
          "type": "uint32"
        },
        {
          "internalType": "uint256",
          "name": "amountTokenDesired",
          "type": "uint256"
        },
        {
          "internalType": "uint256",
          "name": "amountTokenMin",
          "type": "uint256"
        },
        {
          "internalType": "uint256",
          "name": "amountETHMin",
          "type": "uint256"
        },
        {
          "internalType": "address",
          "name": "to",
          "type": "address"
        },
        {
          "internalType": "uint256",
          "name": "deadline",
          "type": "uint256"
        }
      ],
      "name": "addLiquidityNewPoolETH",
      "outputs": [
        {
          "internalType": "uint256",
          "name": "amountToken",
          "type": "uint256"
        },
        {
          "internalType": "uint256",
          "name": "amountETH",
          "type": "uint256"
        },
        {
          "internalType": "uint256",
          "name": "liquidity",
          "type": "uint256"
        }
      ],
      "stateMutability": "payable",
      "type": "function"
    },
    {
      "inputs": [],
      "name": "factory",
      "outputs": [
        {
          "internalType": "address",
          "name": "",
          "type": "address"
        }
      ],
      "stateMutability": "view",
      "type": "function"
    },
    {
      "inputs": [
        {
          "internalType": "uint256",
          "name": "amountOut",
          "type": "uint256"
        },
        {
          "internalType": "address[]",
          "name": "pairsPath",
          "type": "address[]"
        },
        {
          "internalType": "contract IERC20[]",
          "name": "path",
          "type": "address[]"
        }
      ],
      "name": "getAmountsIn",
      "outputs": [
        {
          "internalType": "uint256[]",
          "name": "amounts",
          "type": "uint256[]"
        }
      ],
      "stateMutability": "view",
      "type": "function"
    },
    {
      "inputs": [
        {
          "internalType": "uint256",
          "name": "amountIn",
          "type": "uint256"
        },
        {
          "internalType": "address[]",
          "name": "pairsPath",
          "type": "address[]"
        },
        {
          "internalType": "contract IERC20[]",
          "name": "path",
          "type": "address[]"
        }
      ],
      "name": "getAmountsOut",
      "outputs": [
        {
          "internalType": "uint256[]",
          "name": "amounts",
          "type": "uint256[]"
        }
      ],
      "stateMutability": "view",
      "type": "function"
    },
    {
      "inputs": [
        {
          "internalType": "uint256",
          "name": "amountA",
          "type": "uint256"
        },
        {
          "internalType": "uint256",
          "name": "reserveA",
          "type": "uint256"
        },
        {
          "internalType": "uint256",
          "name": "reserveB",
          "type": "uint256"
        }
      ],
      "name": "quote",
      "outputs": [
        {
          "internalType": "uint256",
          "name": "amountB",
          "type": "uint256"
        }
      ],
      "stateMutability": "pure",
      "type": "function"
    },
    {
      "inputs": [
        {
          "internalType": "contract IERC20",
          "name": "tokenA",
          "type": "address"
        },
        {
          "internalType": "contract IERC20",
          "name": "tokenB",
          "type": "address"
        },
        {
          "internalType": "address",
          "name": "pair",
          "type": "address"
        },
        {
          "internalType": "uint256",
          "name": "liquidity",
          "type": "uint256"
        },
        {
          "internalType": "uint256",
          "name": "amountAMin",
          "type": "uint256"
        },
        {
          "internalType": "uint256",
          "name": "amountBMin",
          "type": "uint256"
        },
        {
          "internalType": "address",
          "name": "to",
          "type": "address"
        },
        {
          "internalType": "uint256",
          "name": "deadline",
          "type": "uint256"
        }
      ],
      "name": "removeLiquidity",
      "outputs": [
        {
          "internalType": "uint256",
          "name": "amountA",
          "type": "uint256"
        },
        {
          "internalType": "uint256",
          "name": "amountB",
          "type": "uint256"
        }
      ],
      "stateMutability": "nonpayable",
      "type": "function"
    },
    {
      "inputs": [
        {
          "internalType": "contract IERC20",
          "name": "token",
          "type": "address"
        },
        {
          "internalType": "address",
          "name": "pair",
          "type": "address"
        },
        {
          "internalType": "uint256",
          "name": "liquidity",
          "type": "uint256"
        },
        {
          "internalType": "uint256",
          "name": "amountTokenMin",
          "type": "uint256"
        },
        {
          "internalType": "uint256",
          "name": "amountETHMin",
          "type": "uint256"
        },
        {
          "internalType": "address",
          "name": "to",
          "type": "address"
        },
        {
          "internalType": "uint256",
          "name": "deadline",
          "type": "uint256"
        }
      ],
      "name": "removeLiquidityETH",
      "outputs": [
        {
          "internalType": "uint256",
          "name": "amountToken",
          "type": "uint256"
        },
        {
          "internalType": "uint256",
          "name": "amountETH",
          "type": "uint256"
        }
      ],
      "stateMutability": "nonpayable",
      "type": "function"
    },
    {
      "inputs": [
        {
          "internalType": "contract IERC20",
          "name": "token",
          "type": "address"
        },
        {
          "internalType": "address",
          "name": "pair",
          "type": "address"
        },
        {
          "internalType": "uint256",
          "name": "liquidity",
          "type": "uint256"
        },
        {
          "internalType": "uint256",
          "name": "amountTokenMin",
          "type": "uint256"
        },
        {
          "internalType": "uint256",
          "name": "amountETHMin",
          "type": "uint256"
        },
        {
          "internalType": "address",
          "name": "to",
          "type": "address"
        },
        {
          "internalType": "uint256",
          "name": "deadline",
          "type": "uint256"
        }
      ],
      "name": "removeLiquidityETHSupportingFeeOnTransferTokens",
      "outputs": [
        {
          "internalType": "uint256",
          "name": "amountETH",
          "type": "uint256"
        }
      ],
      "stateMutability": "nonpayable",
      "type": "function"
    },
    {
      "inputs": [
        {
          "internalType": "contract IERC20",
          "name": "token",
          "type": "address"
        },
        {
          "internalType": "address",
          "name": "pair",
          "type": "address"
        },
        {
          "internalType": "uint256",
          "name": "liquidity",
          "type": "uint256"
        },
        {
          "internalType": "uint256",
          "name": "amountTokenMin",
          "type": "uint256"
        },
        {
          "internalType": "uint256",
          "name": "amountETHMin",
          "type": "uint256"
        },
        {
          "internalType": "address",
          "name": "to",
          "type": "address"
        },
        {
          "internalType": "uint256",
          "name": "deadline",
          "type": "uint256"
        },
        {
          "internalType": "bool",
          "name": "approveMax",
          "type": "bool"
        },
        {
          "internalType": "uint8",
          "name": "v",
          "type": "uint8"
        },
        {
          "internalType": "bytes32",
          "name": "r",
          "type": "bytes32"
        },
        {
          "internalType": "bytes32",
          "name": "s",
          "type": "bytes32"
        }
      ],
      "name": "removeLiquidityETHWithPermit",
      "outputs": [
        {
          "internalType": "uint256",
          "name": "amountToken",
          "type": "uint256"
        },
        {
          "internalType": "uint256",
          "name": "amountETH",
          "type": "uint256"
        }
      ],
      "stateMutability": "nonpayable",
      "type": "function"
    },
    {
      "inputs": [
        {
          "internalType": "contract IERC20",
          "name": "token",
          "type": "address"
        },
        {
          "internalType": "address",
          "name": "pair",
          "type": "address"
        },
        {
          "internalType": "uint256",
          "name": "liquidity",
          "type": "uint256"
        },
        {
          "internalType": "uint256",
          "name": "amountTokenMin",
          "type": "uint256"
        },
        {
          "internalType": "uint256",
          "name": "amountETHMin",
          "type": "uint256"
        },
        {
          "internalType": "address",
          "name": "to",
          "type": "address"
        },
        {
          "internalType": "uint256",
          "name": "deadline",
          "type": "uint256"
        },
        {
          "internalType": "bool",
          "name": "approveMax",
          "type": "bool"
        },
        {
          "internalType": "uint8",
          "name": "v",
          "type": "uint8"
        },
        {
          "internalType": "bytes32",
          "name": "r",
          "type": "bytes32"
        },
        {
          "internalType": "bytes32",
          "name": "s",
          "type": "bytes32"
        }
      ],
      "name": "removeLiquidityETHWithPermitSupportingFeeOnTransferTokens",
      "outputs": [
        {
          "internalType": "uint256",
          "name": "amountETH",
          "type": "uint256"
        }
      ],
      "stateMutability": "nonpayable",
      "type": "function"
    },
    {
      "inputs": [
        {
          "internalType": "contract IERC20",
          "name": "tokenA",
          "type": "address"
        },
        {
          "internalType": "contract IERC20",
          "name": "tokenB",
          "type": "address"
        },
        {
          "internalType": "address",
          "name": "pair",
          "type": "address"
        },
        {
          "internalType": "uint256",
          "name": "liquidity",
          "type": "uint256"
        },
        {
          "internalType": "uint256",
          "name": "amountAMin",
          "type": "uint256"
        },
        {
          "internalType": "uint256",
          "name": "amountBMin",
          "type": "uint256"
        },
        {
          "internalType": "address",
          "name": "to",
          "type": "address"
        },
        {
          "internalType": "uint256",
          "name": "deadline",
          "type": "uint256"
        },
        {
          "internalType": "bool",
          "name": "approveMax",
          "type": "bool"
        },
        {
          "internalType": "uint8",
          "name": "v",
          "type": "uint8"
        },
        {
          "internalType": "bytes32",
          "name": "r",
          "type": "bytes32"
        },
        {
          "internalType": "bytes32",
          "name": "s",
          "type": "bytes32"
        }
      ],
      "name": "removeLiquidityWithPermit",
      "outputs": [
        {
          "internalType": "uint256",
          "name": "amountA",
          "type": "uint256"
        },
        {
          "internalType": "uint256",
          "name": "amountB",
          "type": "uint256"
        }
      ],
      "stateMutability": "nonpayable",
      "type": "function"
    },
    {
      "inputs": [
        {
          "internalType": "uint256",
          "name": "amountOut",
          "type": "uint256"
        },
        {
          "internalType": "address[]",
          "name": "pairsPath",
          "type": "address[]"
        },
        {
          "internalType": "contract IERC20[]",
          "name": "path",
          "type": "address[]"
        },
        {
          "internalType": "address",
          "name": "to",
          "type": "address"
        },
        {
          "internalType": "uint256",
          "name": "deadline",
          "type": "uint256"
        }
      ],
      "name": "swapETHForExactTokens",
      "outputs": [
        {
          "internalType": "uint256[]",
          "name": "amounts",
          "type": "uint256[]"
        }
      ],
      "stateMutability": "payable",
      "type": "function"
    },
    {
      "inputs": [
        {
          "internalType": "uint256",
          "name": "amountOutMin",
          "type": "uint256"
        },
        {
          "internalType": "address[]",
          "name": "pairsPath",
          "type": "address[]"
        },
        {
          "internalType": "contract IERC20[]",
          "name": "path",
          "type": "address[]"
        },
        {
          "internalType": "address",
          "name": "to",
          "type": "address"
        },
        {
          "internalType": "uint256",
          "name": "deadline",
          "type": "uint256"
        }
      ],
      "name": "swapExactETHForTokens",
      "outputs": [
        {
          "internalType": "uint256[]",
          "name": "amounts",
          "type": "uint256[]"
        }
      ],
      "stateMutability": "payable",
      "type": "function"
    },
    {
      "inputs": [
        {
          "internalType": "uint256",
          "name": "amountOutMin",
          "type": "uint256"
        },
        {
          "internalType": "address[]",
          "name": "pairsPath",
          "type": "address[]"
        },
        {
          "internalType": "contract IERC20[]",
          "name": "path",
          "type": "address[]"
        },
        {
          "internalType": "address",
          "name": "to",
          "type": "address"
        },
        {
          "internalType": "uint256",
          "name": "deadline",
          "type": "uint256"
        }
      ],
      "name": "swapExactETHForTokensSupportingFeeOnTransferTokens",
      "outputs": [],
      "stateMutability": "payable",
      "type": "function"
    },
    {
      "inputs": [
        {
          "internalType": "uint256",
          "name": "amountIn",
          "type": "uint256"
        },
        {
          "internalType": "uint256",
          "name": "amountOutMin",
          "type": "uint256"
        },
        {
          "internalType": "address[]",
          "name": "pairsPath",
          "type": "address[]"
        },
        {
          "internalType": "contract IERC20[]",
          "name": "path",
          "type": "address[]"
        },
        {
          "internalType": "address",
          "name": "to",
          "type": "address"
        },
        {
          "internalType": "uint256",
          "name": "deadline",
          "type": "uint256"
        }
      ],
      "name": "swapExactTokensForETH",
      "outputs": [
        {
          "internalType": "uint256[]",
          "name": "amounts",
          "type": "uint256[]"
        }
      ],
      "stateMutability": "nonpayable",
      "type": "function"
    },
    {
      "inputs": [
        {
          "internalType": "uint256",
          "name": "amountIn",
          "type": "uint256"
        },
        {
          "internalType": "uint256",
          "name": "amountOutMin",
          "type": "uint256"
        },
        {
          "internalType": "address[]",
          "name": "pairsPath",
          "type": "address[]"
        },
        {
          "internalType": "contract IERC20[]",
          "name": "path",
          "type": "address[]"
        },
        {
          "internalType": "address",
          "name": "to",
          "type": "address"
        },
        {
          "internalType": "uint256",
          "name": "deadline",
          "type": "uint256"
        }
      ],
      "name": "swapExactTokensForETHSupportingFeeOnTransferTokens",
      "outputs": [],
      "stateMutability": "nonpayable",
      "type": "function"
    },
    {
      "inputs": [
        {
          "internalType": "uint256",
          "name": "amountIn",
          "type": "uint256"
        },
        {
          "internalType": "uint256",
          "name": "amountOutMin",
          "type": "uint256"
        },
        {
          "internalType": "address[]",
          "name": "pairsPath",
          "type": "address[]"
        },
        {
          "internalType": "contract IERC20[]",
          "name": "path",
          "type": "address[]"
        },
        {
          "internalType": "address",
          "name": "to",
          "type": "address"
        },
        {
          "internalType": "uint256",
          "name": "deadline",
          "type": "uint256"
        }
      ],
      "name": "swapExactTokensForTokens",
      "outputs": [
        {
          "internalType": "uint256[]",
          "name": "amounts",
          "type": "uint256[]"
        }
      ],
      "stateMutability": "nonpayable",
      "type": "function"
    },
    {
      "inputs": [
        {
          "internalType": "uint256",
          "name": "amountIn",
          "type": "uint256"
        },
        {
          "internalType": "uint256",
          "name": "amountOutMin",
          "type": "uint256"
        },
        {
          "internalType": "address[]",
          "name": "pairsPath",
          "type": "address[]"
        },
        {
          "internalType": "contract IERC20[]",
          "name": "path",
          "type": "address[]"
        },
        {
          "internalType": "address",
          "name": "to",
          "type": "address"
        },
        {
          "internalType": "uint256",
          "name": "deadline",
          "type": "uint256"
        }
      ],
      "name": "swapExactTokensForTokensSupportingFeeOnTransferTokens",
      "outputs": [],
      "stateMutability": "nonpayable",
      "type": "function"
    },
    {
      "inputs": [
        {
          "internalType": "uint256",
          "name": "amountOut",
          "type": "uint256"
        },
        {
          "internalType": "uint256",
          "name": "amountInMax",
          "type": "uint256"
        },
        {
          "internalType": "address[]",
          "name": "pairsPath",
          "type": "address[]"
        },
        {
          "internalType": "contract IERC20[]",
          "name": "path",
          "type": "address[]"
        },
        {
          "internalType": "address",
          "name": "to",
          "type": "address"
        },
        {
          "internalType": "uint256",
          "name": "deadline",
          "type": "uint256"
        }
      ],
      "name": "swapTokensForExactETH",
      "outputs": [
        {
          "internalType": "uint256[]",
          "name": "amounts",
          "type": "uint256[]"
        }
      ],
      "stateMutability": "nonpayable",
      "type": "function"
    },
    {
      "inputs": [
        {
          "internalType": "uint256",
          "name": "amountOut",
          "type": "uint256"
        },
        {
          "internalType": "uint256",
          "name": "amountInMax",
          "type": "uint256"
        },
        {
          "internalType": "address[]",
          "name": "pairsPath",
          "type": "address[]"
        },
        {
          "internalType": "contract IERC20[]",
          "name": "path",
          "type": "address[]"
        },
        {
          "internalType": "address",
          "name": "to",
          "type": "address"
        },
        {
          "internalType": "uint256",
          "name": "deadline",
          "type": "uint256"
        }
      ],
      "name": "swapTokensForExactTokens",
      "outputs": [
        {
          "internalType": "uint256[]",
          "name": "amounts",
          "type": "uint256[]"
        }
      ],
      "stateMutability": "nonpayable",
      "type": "function"
    },
    {
      "inputs": [],
      "name": "weth",
      "outputs": [
        {
          "internalType": "contract IWETH",
          "name": "",
          "type": "address"
        }
      ],
      "stateMutability": "view",
      "type": "function"
    },
    {
      "stateMutability": "payable",
      "type": "receive"
    }
  ],
  "bytecode": "0x60c06040523480156200001157600080fd5b506040516200611138038062006111833981810160405260408110156200003757600080fd5b5080516020909101516001600160601b0319606092831b8116608052911b1660a05260805160601c60a05160601c615ff862000119600039806101ac528061165c528061174452806117f35280611b7f5280611baa5280611c025280611c9a5280611e215280612045528061211552806121aa52806123655280612661528061278b528061288e52806129ea52806130ee528061331e52806133f5528061352e52806135865280613cbb5280613dad5280614020528061424d52508061145a528061154952806127b552806128c4528061362852806147b15250615ff86000f3fe60806040526004361061018f5760003560e01c8063a8312b1d116100d6578063ceb757d51161007f578063ebb5d2e911610059578063ebb5d2e914611127578063fbf4513514611191578063fc5b8bce1461120b576101d5565b8063ceb757d514610e00578063e1f4a78414610f5b578063e8898b5f14610fcc576101d5565b8063af55e31f116100b0578063af55e31f14610c9c578063b56b681d14610d81578063c45a015514610deb576101d5565b8063a8312b1d14610a35578063ad615dec14610b0b578063ae8290b714610b41576101d5565b80634c17fd7c1161013857806389c275941161011257806389c27594146107dd5780639e269b68146108d4578063a4aabb08146109aa576101d5565b80634c17fd7c1461058a5780636dce49ae146106355780637d41a4221461077c576101d5565b80633990ba54116101695780633990ba54146103f85780633e741fca146104555780633fc8cef31461054c576101d5565b80630e2f024c146101da5780631c5d0a6b146102775780632daaa81814610313576101d5565b366101d5573373ffffffffffffffffffffffffffffffffffffffff7f000000000000000000000000000000000000000000000000000000000000000016146101d357fe5b005b600080fd5b3480156101e657600080fd5b5061026560048036036101608110156101fe57600080fd5b5073ffffffffffffffffffffffffffffffffffffffff8135811691602081013582169160408201359160608101359160808201359160a08101359091169060c08101359060e081013515159060ff61010082013516906101208101359061014001356112f0565b60408051918252519081900360200190f35b34801561028357600080fd5b506102f5600480360361012081101561029b57600080fd5b5073ffffffffffffffffffffffffffffffffffffffff8135811691602081013582169163ffffffff6040830135169160608101359160808201359160a08101359160c08201359160e08101359091169061010001356113f4565b60408051938452602084019290925282820152519081900360600190f35b6101d3600480360360a081101561032957600080fd5b8135919081019060408101602082013564010000000081111561034b57600080fd5b82018360208201111561035d57600080fd5b8035906020019184602083028401116401000000008311171561037f57600080fd5b91939092909160208101903564010000000081111561039d57600080fd5b8201836020820111156103af57600080fd5b803590602001918460208302840111640100000000831117156103d157600080fd5b919350915073ffffffffffffffffffffffffffffffffffffffff81351690602001356115ea565b6102f5600480360360e081101561040e57600080fd5b5073ffffffffffffffffffffffffffffffffffffffff8135811691602081013582169160408201359160608101359160808201359160a08101359091169060c00135611b04565b34801561046157600080fd5b506101d3600480360360c081101561047857600080fd5b81359160208101359181019060608101604082013564010000000081111561049f57600080fd5b8201836020820111156104b157600080fd5b803590602001918460208302840111640100000000831117156104d357600080fd5b9193909290916020810190356401000000008111156104f157600080fd5b82018360208201111561050357600080fd5b8035906020019184602083028401116401000000008311171561052557600080fd5b919350915073ffffffffffffffffffffffffffffffffffffffff8135169060200135611d9a565b34801561055857600080fd5b506105616121a8565b6040805173ffffffffffffffffffffffffffffffffffffffff9092168252519081900360200190f35b34801561059657600080fd5b5061061c60048036036101808110156105ae57600080fd5b5073ffffffffffffffffffffffffffffffffffffffff81358116916020810135821691604082013581169160608101359160808201359160a08101359160c0820135169060e08101359061010081013515159060ff61012082013516906101408101359061016001356121cc565b6040805192835260208301919091528051918290030190f35b34801561064157600080fd5b5061072c600480360360c081101561065857600080fd5b81359160208101359181019060608101604082013564010000000081111561067f57600080fd5b82018360208201111561069157600080fd5b803590602001918460208302840111640100000000831117156106b357600080fd5b9193909290916020810190356401000000008111156106d157600080fd5b8201836020820111156106e357600080fd5b8035906020019184602083028401116401000000008311171561070557600080fd5b919350915073ffffffffffffffffffffffffffffffffffffffff81351690602001356122dc565b60408051602080825283518183015283519192839290830191858101910280838360005b83811015610768578181015183820152602001610750565b505050509050019250505060405180910390f35b6102f5600480360360e081101561079257600080fd5b5073ffffffffffffffffffffffffffffffffffffffff813581169163ffffffff6020820135169160408201359160608101359160808201359160a08101359091169060c0013561272f565b3480156107e957600080fd5b5061072c600480360360c081101561080057600080fd5b81359160208101359181019060608101604082013564010000000081111561082757600080fd5b82018360208201111561083957600080fd5b8035906020019184602083028401116401000000008311171561085b57600080fd5b91939092909160208101903564010000000081111561087957600080fd5b82018360208201111561088b57600080fd5b803590602001918460208302840111640100000000831117156108ad57600080fd5b919350915073ffffffffffffffffffffffffffffffffffffffff8135169060200135612961565b3480156108e057600080fd5b5061072c600480360360608110156108f757600080fd5b8135919081019060408101602082013564010000000081111561091957600080fd5b82018360208201111561092b57600080fd5b8035906020019184602083028401116401000000008311171561094d57600080fd5b91939092909160208101903564010000000081111561096b57600080fd5b82018360208201111561097d57600080fd5b8035906020019184602083028401116401000000008311171561099f57600080fd5b509092509050612c21565b3480156109b657600080fd5b5061061c60048036036101608110156109ce57600080fd5b5073ffffffffffffffffffffffffffffffffffffffff8135811691602081013582169160408201359160608101359160808201359160a08101359091169060c08101359060e081013515159060ff6101008201351690610120810135906101400135612d08565b348015610a4157600080fd5b5061072c60048036036060811015610a5857600080fd5b81359190810190604081016020820135640100000000811115610a7a57600080fd5b820183602082011115610a8c57600080fd5b80359060200191846020830284011164010000000083111715610aae57600080fd5b919390929091602081019035640100000000811115610acc57600080fd5b820183602082011115610ade57600080fd5b80359060200191846020830284011164010000000083111715610b0057600080fd5b509092509050612e12565b348015610b1757600080fd5b5061026560048036036060811015610b2e57600080fd5b5080359060208101359060400135612eef565b348015610b4d57600080fd5b5061072c600480360360c0811015610b6457600080fd5b813591602081013591810190606081016040820135640100000000811115610b8b57600080fd5b820183602082011115610b9d57600080fd5b80359060200191846020830284011164010000000083111715610bbf57600080fd5b9190808060200260200160405190810160405280939291908181526020018383602002808284376000920191909152509295949360208101935035915050640100000000811115610c0f57600080fd5b820183602082011115610c2157600080fd5b80359060200191846020830284011164010000000083111715610c4357600080fd5b9190808060200260200160405190810160405280939291908181526020018383602002808284376000920191909152509295505073ffffffffffffffffffffffffffffffffffffffff8335169350505060200135612f04565b61072c600480360360a0811015610cb257600080fd5b81359190810190604081016020820135640100000000811115610cd457600080fd5b820183602082011115610ce657600080fd5b80359060200191846020830284011164010000000083111715610d0857600080fd5b919390929091602081019035640100000000811115610d2657600080fd5b820183602082011115610d3857600080fd5b80359060200191846020830284011164010000000083111715610d5a57600080fd5b919350915073ffffffffffffffffffffffffffffffffffffffff813516906020013561307a565b348015610d8d57600080fd5b5061061c600480360360e0811015610da457600080fd5b5073ffffffffffffffffffffffffffffffffffffffff8135811691602081013582169160408201359160608101359160808201359160a08101359091169060c001356134b5565b348015610df757600080fd5b50610561613626565b348015610e0c57600080fd5b5061072c600480360360c0811015610e2357600080fd5b813591602081013591810190606081016040820135640100000000811115610e4a57600080fd5b820183602082011115610e5c57600080fd5b80359060200191846020830284011164010000000083111715610e7e57600080fd5b9190808060200260200160405190810160405280939291908181526020018383602002808284376000920191909152509295949360208101935035915050640100000000811115610ece57600080fd5b820183602082011115610ee057600080fd5b80359060200191846020830284011164010000000083111715610f0257600080fd5b9190808060200260200160405190810160405280939291908181526020018383602002808284376000920191909152509295505073ffffffffffffffffffffffffffffffffffffffff833516935050506020013561364a565b348015610f6757600080fd5b5061061c6004803603610100811015610f7f57600080fd5b5073ffffffffffffffffffffffffffffffffffffffff81358116916020810135821691604082013581169160608101359160808201359160a08101359160c0820135169060e00135613743565b348015610fd857600080fd5b506101d3600480360360c0811015610fef57600080fd5b81359160208101359181019060608101604082013564010000000081111561101657600080fd5b82018360208201111561102857600080fd5b8035906020019184602083028401116401000000008311171561104a57600080fd5b919080806020026020016040519081016040528093929190818152602001838360200280828437600092019190915250929594936020810193503591505064010000000081111561109a57600080fd5b8201836020820111156110ac57600080fd5b803590602001918460208302840111640100000000831117156110ce57600080fd5b9190808060200260200160405190810160405280939291908181526020018383602002808284376000920191909152509295505073ffffffffffffffffffffffffffffffffffffffff83351693505050602001356139a6565b34801561113357600080fd5b50610265600480360360e081101561114a57600080fd5b5073ffffffffffffffffffffffffffffffffffffffff8135811691602081013582169160408201359160608101359160808201359160a08101359091169060c00135613c43565b34801561119d57600080fd5b506102f560048036036101208110156111b557600080fd5b5073ffffffffffffffffffffffffffffffffffffffff81358116916020810135821691604082013581169160608101359160808201359160a08101359160c08201359160e0810135909116906101000135613e40565b61072c600480360360a081101561122157600080fd5b8135919081019060408101602082013564010000000081111561124357600080fd5b82018360208201111561125557600080fd5b8035906020019184602083028401116401000000008311171561127757600080fd5b91939092909160208101903564010000000081111561129557600080fd5b8201836020820111156112a757600080fd5b803590602001918460208302840111640100000000831117156112c957600080fd5b919350915073ffffffffffffffffffffffffffffffffffffffff8135169060200135613fac565b600080856112fe578a611320565b7fffffffffffffffffffffffffffffffffffffffffffffffffffffffffffffffff5b604080517fd505accf00000000000000000000000000000000000000000000000000000000815233600482015230602482015260448101839052606481018a905260ff8816608482015260a4810187905260c48101869052905191925073ffffffffffffffffffffffffffffffffffffffff8e169163d505accf9160e48082019260009290919082900301818387803b1580156113bc57600080fd5b505af11580156113d0573d6000803e3d6000fd5b505050506113e38d8d8d8d8d8d8d613c43565b9d9c50505050505050505050505050565b6000806000806127108b63ffffffff1614156114d257604080517fcd26b35f00000000000000000000000000000000000000000000000000000000815273ffffffffffffffffffffffffffffffffffffffff8f811660048301528e8116602483015291517f00000000000000000000000000000000000000000000000000000000000000009092169163cd26b35f91604480820192602092909190829003018186803b1580156114a357600080fd5b505afa1580156114b7573d6000803e3d6000fd5b505050506040513d60208110156114cd57600080fd5b505190505b73ffffffffffffffffffffffffffffffffffffffff81166115c357604080517f8d22cf5400000000000000000000000000000000000000000000000000000000815273ffffffffffffffffffffffffffffffffffffffff8f811660048301528e8116602483015263ffffffff8e16604483015291517f000000000000000000000000000000000000000000000000000000000000000090921691638d22cf54916064808201926020929091908290030181600087803b15801561159457600080fd5b505af11580156115a8573d6000803e3d6000fd5b505050506040513d60208110156115be57600080fd5b505190505b6115d48d8d838d8d8d8d8d8d613e40565b919f909e50909c509a5050505050505050505050565b804281101561165a57604080517f08c379a000000000000000000000000000000000000000000000000000000000815260206004820152601660248201527f58595a53776170526f757465723a204558504952454400000000000000000000604482015290519081900360640190fd5b7f000000000000000000000000000000000000000000000000000000000000000073ffffffffffffffffffffffffffffffffffffffff168585600081811061169e57fe5b9050602002013573ffffffffffffffffffffffffffffffffffffffff1673ffffffffffffffffffffffffffffffffffffffff161461173d57604080517f08c379a000000000000000000000000000000000000000000000000000000000815260206004820152601b60248201527f58595a53776170526f757465723a20494e56414c49445f504154480000000000604482015290519081900360640190fd5b60003490507f000000000000000000000000000000000000000000000000000000000000000073ffffffffffffffffffffffffffffffffffffffff1663d0e30db0826040518263ffffffff1660e01b81526004016000604051808303818588803b1580156117aa57600080fd5b505af11580156117be573d6000803e3d6000fd5b5050505050611837888860008181106117d357fe5b9050602002013573ffffffffffffffffffffffffffffffffffffffff16827f000000000000000000000000000000000000000000000000000000000000000073ffffffffffffffffffffffffffffffffffffffff1661439c9092919063ffffffff16565b600086867fffffffffffffffffffffffffffffffffffffffffffffffffffffffffffffffff810181811061186757fe5b9050602002013573ffffffffffffffffffffffffffffffffffffffff1673ffffffffffffffffffffffffffffffffffffffff166370a08231866040518263ffffffff1660e01b8152600401808273ffffffffffffffffffffffffffffffffffffffff1673ffffffffffffffffffffffffffffffffffffffff16815260200191505060206040518083038186803b15801561190057600080fd5b505afa158015611914573d6000803e3d6000fd5b505050506040513d602081101561192a57600080fd5b50516040805160208b810282810182019093528b825292935061199d9290918c918c91829185019084908082843760009201919091525050604080516020808d0282810182019093528c82529093508c92508b9182918501908490808284376000920191909152508a925061442e915050565b89611aa18289897fffffffffffffffffffffffffffffffffffffffffffffffffffffffffffffffff81018181106119d057fe5b9050602002013573ffffffffffffffffffffffffffffffffffffffff1673ffffffffffffffffffffffffffffffffffffffff166370a08231896040518263ffffffff1660e01b8152600401808273ffffffffffffffffffffffffffffffffffffffff1673ffffffffffffffffffffffffffffffffffffffff16815260200191505060206040518083038186803b158015611a6957600080fd5b505afa158015611a7d573d6000803e3d6000fd5b505050506040513d6020811015611a9357600080fd5b50519063ffffffff61470e16565b1015611af8576040517f08c379a0000000000000000000000000000000000000000000000000000000008152600401808060200182810382526029815260200180615e256029913960400191505060405180910390fd5b50505050505050505050565b60008060008342811015611b7957604080517f08c379a000000000000000000000000000000000000000000000000000000000815260206004820152601660248201527f58595a53776170526f757465723a204558504952454400000000000000000000604482015290519081900360640190fd5b611ba48b7f00000000000000000000000000000000000000000000000000000000000000008c614759565b611bd38b7f00000000000000000000000000000000000000000000000000000000000000008c8c348d8d614891565b9094509250611c0073ffffffffffffffffffffffffffffffffffffffff8c16338c8763ffffffff6149c616565b7f000000000000000000000000000000000000000000000000000000000000000073ffffffffffffffffffffffffffffffffffffffff1663d0e30db0846040518263ffffffff1660e01b81526004016000604051808303818588803b158015611c6857600080fd5b505af1158015611c7c573d6000803e3d6000fd5b50611ccb93505073ffffffffffffffffffffffffffffffffffffffff7f00000000000000000000000000000000000000000000000000000000000000001691508c90508563ffffffff61439c16565b8973ffffffffffffffffffffffffffffffffffffffff16636a627842876040518263ffffffff1660e01b8152600401808273ffffffffffffffffffffffffffffffffffffffff1673ffffffffffffffffffffffffffffffffffffffff168152602001915050602060405180830381600087803b158015611d4a57600080fd5b505af1158015611d5e573d6000803e3d6000fd5b505050506040513d6020811015611d7457600080fd5b5051915034831015611d8c57611d8c33843403614a5b565b509750975097945050505050565b8042811015611e0a57604080517f08c379a000000000000000000000000000000000000000000000000000000000815260206004820152601660248201527f58595a53776170526f757465723a204558504952454400000000000000000000604482015290519081900360640190fd5b73ffffffffffffffffffffffffffffffffffffffff7f00000000000000000000000000000000000000000000000000000000000000001685857fffffffffffffffffffffffffffffffffffffffffffffffffffffffffffffffff8101818110611e6f57fe5b9050602002013573ffffffffffffffffffffffffffffffffffffffff1673ffffffffffffffffffffffffffffffffffffffff1614611f0e57604080517f08c379a000000000000000000000000000000000000000000000000000000000815260206004820152601b60248201527f58595a53776170526f757465723a20494e56414c49445f504154480000000000604482015290519081900360640190fd5b611f8d3388886000818110611f1f57fe5b9050602002013573ffffffffffffffffffffffffffffffffffffffff168b88886000818110611f4a57fe5b9050602002013573ffffffffffffffffffffffffffffffffffffffff1673ffffffffffffffffffffffffffffffffffffffff166149c6909392919063ffffffff16565b611ffc87878080602002602001604051908101604052809392919081815260200183836020028082843760009201919091525050604080516020808b0282810182019093528a82529093508a92508991829185019084908082843760009201919091525030925061442e915050565b604080517f70a08231000000000000000000000000000000000000000000000000000000008152306004820152905160009173ffffffffffffffffffffffffffffffffffffffff7f000000000000000000000000000000000000000000000000000000000000000016916370a0823191602480820192602092909190829003018186803b15801561208c57600080fd5b505afa1580156120a0573d6000803e3d6000fd5b505050506040513d60208110156120b657600080fd5b5051905088811015612113576040517f08c379a0000000000000000000000000000000000000000000000000000000008152600401808060200182810382526029815260200180615e256029913960400191505060405180910390fd5b7f000000000000000000000000000000000000000000000000000000000000000073ffffffffffffffffffffffffffffffffffffffff16632e1a7d4d826040518263ffffffff1660e01b815260040180828152602001915050600060405180830381600087803b15801561218657600080fd5b505af115801561219a573d6000803e3d6000fd5b50505050611af88482614a5b565b7f000000000000000000000000000000000000000000000000000000000000000081565b6000806000866121dc578b6121fe565b7fffffffffffffffffffffffffffffffffffffffffffffffffffffffffffffffff5b604080517fd505accf00000000000000000000000000000000000000000000000000000000815233600482015230602482015260448101839052606481018b905260ff8916608482015260a4810188905260c48101879052905191925073ffffffffffffffffffffffffffffffffffffffff8f169163d505accf9160e48082019260009290919082900301818387803b15801561229a57600080fd5b505af11580156122ae573d6000803e3d6000fd5b505050506122c28f8f8f8f8f8f8f8f613743565b8093508194505050509c509c9a5050505050505050505050565b6060814281101561234e57604080517f08c379a000000000000000000000000000000000000000000000000000000000815260206004820152601660248201527f58595a53776170526f757465723a204558504952454400000000000000000000604482015290519081900360640190fd5b73ffffffffffffffffffffffffffffffffffffffff7f00000000000000000000000000000000000000000000000000000000000000001686867fffffffffffffffffffffffffffffffffffffffffffffffffffffffffffffffff81018181106123b357fe5b9050602002013573ffffffffffffffffffffffffffffffffffffffff1673ffffffffffffffffffffffffffffffffffffffff161461245257604080517f08c379a000000000000000000000000000000000000000000000000000000000815260206004820152601b60248201527f58595a53776170526f757465723a20494e56414c49445f504154480000000000604482015290519081900360640190fd5b6124bf88888080602002602001604051908101604052809392919081815260200183836020028082843760009201919091525050604080516020808c0282810182019093528b82529093508b92508a918291850190849080828437600092019190915250614b9392505050565b61252d8a89898080602002602001604051908101604052809392919081815260200183836020028082843760009201919091525050604080516020808d0282810182019093528c82529093508c92508b918291850190849080828437600092019190915250614cbc92505050565b9150888260018451038151811061254057fe5b6020026020010151101561259f576040517f08c379a0000000000000000000000000000000000000000000000000000000008152600401808060200182810382526029815260200180615e256029913960400191505060405180910390fd5b6125ef33898960008181106125b057fe5b9050602002013573ffffffffffffffffffffffffffffffffffffffff16846000815181106125da57fe5b602002602001015189896000818110611f4a57fe5b61265f8289898080602002602001604051908101604052809392919081815260200183836020028082843760009201919091525050604080516020808d0282810182019093528c82529093508c92508b918291850190849080828437600092019190915250309250614dd9915050565b7f000000000000000000000000000000000000000000000000000000000000000073ffffffffffffffffffffffffffffffffffffffff16632e1a7d4d836001855103815181106126ab57fe5b60200260200101516040518263ffffffff1660e01b815260040180828152602001915050600060405180830381600087803b1580156126e957600080fd5b505af11580156126fd573d6000803e3d6000fd5b50505050612722848360018551038151811061271557fe5b6020026020010151614a5b565b5098975050505050505050565b6000806000806127108a63ffffffff16141561282d57604080517fcd26b35f00000000000000000000000000000000000000000000000000000000815273ffffffffffffffffffffffffffffffffffffffff8d811660048301527f00000000000000000000000000000000000000000000000000000000000000008116602483015291517f00000000000000000000000000000000000000000000000000000000000000009092169163cd26b35f91604480820192602092909190829003018186803b1580156127fe57600080fd5b505afa158015612812573d6000803e3d6000fd5b505050506040513d602081101561282857600080fd5b505190505b73ffffffffffffffffffffffffffffffffffffffff811661293e57604080517f8d22cf5400000000000000000000000000000000000000000000000000000000815273ffffffffffffffffffffffffffffffffffffffff8d811660048301527f00000000000000000000000000000000000000000000000000000000000000008116602483015263ffffffff8d16604483015291517f000000000000000000000000000000000000000000000000000000000000000090921691638d22cf54916064808201926020929091908290030181600087803b15801561290f57600080fd5b505af1158015612923573d6000803e3d6000fd5b505050506040513d602081101561293957600080fd5b505190505b61294d8b828b8b8b8b8b611b04565b919d909c50909a5098505050505050505050565b606081428110156129d357604080517f08c379a000000000000000000000000000000000000000000000000000000000815260206004820152601660248201527f58595a53776170526f757465723a204558504952454400000000000000000000604482015290519081900360640190fd5b73ffffffffffffffffffffffffffffffffffffffff7f00000000000000000000000000000000000000000000000000000000000000001686867fffffffffffffffffffffffffffffffffffffffffffffffffffffffffffffffff8101818110612a3857fe5b9050602002013573ffffffffffffffffffffffffffffffffffffffff1673ffffffffffffffffffffffffffffffffffffffff1614612ad757604080517f08c379a000000000000000000000000000000000000000000000000000000000815260206004820152601b60248201527f58595a53776170526f757465723a20494e56414c49445f504154480000000000604482015290519081900360640190fd5b612b4488888080602002602001604051908101604052809392919081815260200183836020028082843760009201919091525050604080516020808c0282810182019093528b82529093508b92508a918291850190849080828437600092019190915250614b9392505050565b612bb28a89898080602002602001604051908101604052809392919081815260200183836020028082843760009201919091525050604080516020808d0282810182019093528c82529093508c92508b91829185019084908082843760009201919091525061503892505050565b91508882600081518110612bc257fe5b6020026020010151111561259f576040517f08c379a0000000000000000000000000000000000000000000000000000000008152600401808060200182810382526025815260200180615e726025913960400191505060405180910390fd5b6060612c9085858080602002602001604051908101604052809392919081815260200183836020028082843760009201919091525050604080516020808902828101820190935288825290935088925087918291850190849080828437600092019190915250614b9392505050565b612cfe8686868080602002602001604051908101604052809392919081815260200183836020028082843760009201919091525050604080516020808a0282810182019093528982529093508992508891829185019084908082843760009201919091525061503892505050565b9695505050505050565b600080600086612d18578b612d3a565b7fffffffffffffffffffffffffffffffffffffffffffffffffffffffffffffffff5b604080517fd505accf00000000000000000000000000000000000000000000000000000000815233600482015230602482015260448101839052606481018b905260ff8916608482015260a4810188905260c48101879052905191925073ffffffffffffffffffffffffffffffffffffffff8f169163d505accf9160e48082019260009290919082900301818387803b158015612dd657600080fd5b505af1158015612dea573d6000803e3d6000fd5b50505050612dfd8e8e8e8e8e8e8e6134b5565b909f909e509c50505050505050505050505050565b6060612e8185858080602002602001604051908101604052809392919081815260200183836020028082843760009201919091525050604080516020808902828101820190935288825290935088925087918291850190849080828437600092019190915250614b9392505050565b612cfe8686868080602002602001604051908101604052809392919081815260200183836020028082843760009201919091525050604080516020808a02828101820190935289825290935089925088918291850190849080828437600092019190915250614cbc92505050565b6000612efc848484615180565b949350505050565b60608142811015612f7657604080517f08c379a000000000000000000000000000000000000000000000000000000000815260206004820152601660248201527f58595a53776170526f757465723a204558504952454400000000000000000000604482015290519081900360640190fd5b612f808686614b93565b612f8b888787615038565b91508682600081518110612f9b57fe5b60200260200101511115612ffa576040517f08c379a0000000000000000000000000000000000000000000000000000000008152600401808060200182810382526025815260200180615e726025913960400191505060405180910390fd5b613063338760008151811061300b57fe5b60200260200101518460008151811061302057fe5b60200260200101518860008151811061303557fe5b602002602001015173ffffffffffffffffffffffffffffffffffffffff166149c6909392919063ffffffff16565b61306f82878787614dd9565b509695505050505050565b606081428110156130ec57604080517f08c379a000000000000000000000000000000000000000000000000000000000815260206004820152601660248201527f58595a53776170526f757465723a204558504952454400000000000000000000604482015290519081900360640190fd5b7f000000000000000000000000000000000000000000000000000000000000000073ffffffffffffffffffffffffffffffffffffffff168686600081811061313057fe5b9050602002013573ffffffffffffffffffffffffffffffffffffffff1673ffffffffffffffffffffffffffffffffffffffff16146131cf57604080517f08c379a000000000000000000000000000000000000000000000000000000000815260206004820152601b60248201527f58595a53776170526f757465723a20494e56414c49445f504154480000000000604482015290519081900360640190fd5b61323c88888080602002602001604051908101604052809392919081815260200183836020028082843760009201919091525050604080516020808c0282810182019093528b82529093508b92508a918291850190849080828437600092019190915250614b9392505050565b6132aa3489898080602002602001604051908101604052809392919081815260200183836020028082843760009201919091525050604080516020808d0282810182019093528c82529093508c92508b918291850190849080828437600092019190915250614cbc92505050565b915088826001845103815181106132bd57fe5b6020026020010151101561331c576040517f08c379a0000000000000000000000000000000000000000000000000000000008152600401808060200182810382526029815260200180615e256029913960400191505060405180910390fd5b7f000000000000000000000000000000000000000000000000000000000000000073ffffffffffffffffffffffffffffffffffffffff1663d0e30db08360008151811061336557fe5b60200260200101516040518263ffffffff1660e01b81526004016000604051808303818588803b15801561339857600080fd5b505af11580156133ac573d6000803e3d6000fd5b5050505050613439888860008181106133c157fe5b9050602002013573ffffffffffffffffffffffffffffffffffffffff16836000815181106133eb57fe5b60200260200101517f000000000000000000000000000000000000000000000000000000000000000073ffffffffffffffffffffffffffffffffffffffff1661439c9092919063ffffffff16565b6134a98289898080602002602001604051908101604052809392919081815260200183836020028082843760009201919091525050604080516020808d0282810182019093528c82529093508c92508b9182918501908490808284376000920191909152508a9250614dd9915050565b50979650505050505050565b600080824281101561352857604080517f08c379a000000000000000000000000000000000000000000000000000000000815260206004820152601660248201527f58595a53776170526f757465723a204558504952454400000000000000000000604482015290519081900360640190fd5b6135588a7f00000000000000000000000000000000000000000000000000000000000000008b8b8b8b308b613743565b909350915061358473ffffffffffffffffffffffffffffffffffffffff8b16868563ffffffff61439c16565b7f000000000000000000000000000000000000000000000000000000000000000073ffffffffffffffffffffffffffffffffffffffff16632e1a7d4d836040518263ffffffff1660e01b815260040180828152602001915050600060405180830381600087803b1580156135f757600080fd5b505af115801561360b573d6000803e3d6000fd5b505050506136198583614a5b565b5097509795505050505050565b7f000000000000000000000000000000000000000000000000000000000000000081565b606081428110156136bc57604080517f08c379a000000000000000000000000000000000000000000000000000000000815260206004820152601660248201527f58595a53776170526f757465723a204558504952454400000000000000000000604482015290519081900360640190fd5b6136c68686614b93565b6136d1888787614cbc565b915086826001845103815181106136e457fe5b60200260200101511015612ffa576040517f08c379a0000000000000000000000000000000000000000000000000000000008152600401808060200182810382526029815260200180615e256029913960400191505060405180910390fd5b60008082428110156137b657604080517f08c379a000000000000000000000000000000000000000000000000000000000815260206004820152601660248201527f58595a53776170526f757465723a204558504952454400000000000000000000604482015290519081900360640190fd5b6137c18b8b8b614759565b6137e973ffffffffffffffffffffffffffffffffffffffff8a16338b8b63ffffffff6149c616565b604080517f89afcb4400000000000000000000000000000000000000000000000000000000815273ffffffffffffffffffffffffffffffffffffffff878116600483015282516000938493928e16926389afcb44926024808301939282900301818787803b15801561385a57600080fd5b505af115801561386e573d6000803e3d6000fd5b505050506040513d604081101561388457600080fd5b5080516020909101519092509050600061389e8e8e615260565b5090508073ffffffffffffffffffffffffffffffffffffffff168e73ffffffffffffffffffffffffffffffffffffffff16146138db5781836138de565b82825b90965094508986101561393c576040517f08c379a0000000000000000000000000000000000000000000000000000000008152600401808060200182810382526024815260200180615f2c6024913960400191505060405180910390fd5b88851015613995576040517f08c379a0000000000000000000000000000000000000000000000000000000008152600401808060200182810382526024815260200180615e4e6024913960400191505060405180910390fd5b505050509850989650505050505050565b8042811015613a1657604080517f08c379a000000000000000000000000000000000000000000000000000000000815260206004820152601660248201527f58595a53776170526f757465723a204558504952454400000000000000000000604482015290519081900360640190fd5b613a3d3386600081518110613a2757fe5b6020026020010151898760008151811061303557fe5b600084600186510381518110613a4f57fe5b602002602001015173ffffffffffffffffffffffffffffffffffffffff166370a08231856040518263ffffffff1660e01b8152600401808273ffffffffffffffffffffffffffffffffffffffff1673ffffffffffffffffffffffffffffffffffffffff16815260200191505060206040518083038186803b158015613ad357600080fd5b505afa158015613ae7573d6000803e3d6000fd5b505050506040513d6020811015613afd57600080fd5b50519050613b0c86868661442e565b600085600187510381518110613b1e57fe5b602002602001015173ffffffffffffffffffffffffffffffffffffffff166370a08231866040518263ffffffff1660e01b8152600401808273ffffffffffffffffffffffffffffffffffffffff1673ffffffffffffffffffffffffffffffffffffffff16815260200191505060206040518083038186803b158015613ba257600080fd5b505afa158015613bb6573d6000803e3d6000fd5b505050506040513d6020811015613bcc57600080fd5b50519050613be0828963ffffffff6153b316565b811015613c38576040517f08c379a0000000000000000000000000000000000000000000000000000000008152600401808060200182810382526029815260200180615e256029913960400191505060405180910390fd5b505050505050505050565b60008142811015613cb557604080517f08c379a000000000000000000000000000000000000000000000000000000000815260206004820152601660248201527f58595a53776170526f757465723a204558504952454400000000000000000000604482015290519081900360640190fd5b613ce5897f00000000000000000000000000000000000000000000000000000000000000008a8a8a8a308a613743565b604080517f70a082310000000000000000000000000000000000000000000000000000000081523060048201529051919450613dab9250869173ffffffffffffffffffffffffffffffffffffffff8d16916370a08231916024808301926020929190829003018186803b158015613d5b57600080fd5b505afa158015613d6f573d6000803e3d6000fd5b505050506040513d6020811015613d8557600080fd5b505173ffffffffffffffffffffffffffffffffffffffff8c16919063ffffffff61439c16565b7f000000000000000000000000000000000000000000000000000000000000000073ffffffffffffffffffffffffffffffffffffffff16632e1a7d4d836040518263ffffffff1660e01b815260040180828152602001915050600060405180830381600087803b158015613e1e57600080fd5b505af1158015613e32573d6000803e3d6000fd5b505050506134a98483614a5b565b60008060008342811015613eb557604080517f08c379a000000000000000000000000000000000000000000000000000000000815260206004820152601660248201527f58595a53776170526f757465723a204558504952454400000000000000000000604482015290519081900360640190fd5b613ec08d8d8d614759565b613ecf8d8d8d8d8d8d8d614891565b9094509250613ee08d338d876149c6565b613eec8c338d866149c6565b8a73ffffffffffffffffffffffffffffffffffffffff16636a627842876040518263ffffffff1660e01b8152600401808273ffffffffffffffffffffffffffffffffffffffff1673ffffffffffffffffffffffffffffffffffffffff168152602001915050602060405180830381600087803b158015613f6b57600080fd5b505af1158015613f7f573d6000803e3d6000fd5b505050506040513d6020811015613f9557600080fd5b5051939d929c50929a509098505050505050505050565b6060814281101561401e57604080517f08c379a000000000000000000000000000000000000000000000000000000000815260206004820152601660248201527f58595a53776170526f757465723a204558504952454400000000000000000000604482015290519081900360640190fd5b7f000000000000000000000000000000000000000000000000000000000000000073ffffffffffffffffffffffffffffffffffffffff168686600081811061406257fe5b9050602002013573ffffffffffffffffffffffffffffffffffffffff1673ffffffffffffffffffffffffffffffffffffffff161461410157604080517f08c379a000000000000000000000000000000000000000000000000000000000815260206004820152601b60248201527f58595a53776170526f757465723a20494e56414c49445f504154480000000000604482015290519081900360640190fd5b61416e88888080602002602001604051908101604052809392919081815260200183836020028082843760009201919091525050604080516020808c0282810182019093528b82529093508b92508a918291850190849080828437600092019190915250614b9392505050565b6141dc8989898080602002602001604051908101604052809392919081815260200183836020028082843760009201919091525050604080516020808d0282810182019093528c82529093508c92508b91829185019084908082843760009201919091525061503892505050565b915034826000815181106141ec57fe5b6020026020010151111561424b576040517f08c379a0000000000000000000000000000000000000000000000000000000008152600401808060200182810382526025815260200180615e726025913960400191505060405180910390fd5b7f000000000000000000000000000000000000000000000000000000000000000073ffffffffffffffffffffffffffffffffffffffff1663d0e30db08360008151811061429457fe5b60200260200101516040518263ffffffff1660e01b81526004016000604051808303818588803b1580156142c757600080fd5b505af11580156142db573d6000803e3d6000fd5b50505050506142f0888860008181106133c157fe5b6143608289898080602002602001604051908101604052809392919081815260200183836020028082843760009201919091525050604080516020808d0282810182019093528c82529093508c92508b9182918501908490808284376000920191909152508a9250614dd9915050565b8160008151811061436d57fe5b60200260200101513411156134a9576134a9338360008151811061438d57fe5b60200260200101513403614a5b565b6040805173ffffffffffffffffffffffffffffffffffffffff8416602482015260448082018490528251808303909101815260649091019091526020810180517bffffffffffffffffffffffffffffffffffffffffffffffffffffffff167fa9059cbb00000000000000000000000000000000000000000000000000000000179052614429908490615427565b505050565b6144388383614b93565b60005b60018351038110156147085760008084838151811061445657fe5b602002602001015185846001018151811061446d57fe5b60200260200101519150915060006144858383615260565b509050600087858151811061449657fe5b602002602001015190506000806000806000806144c78e8c815181106144b857fe5b60200260200101518b8b6154ff565b945094509450945094506000614554868c73ffffffffffffffffffffffffffffffffffffffff166370a082318b6040518263ffffffff1660e01b8152600401808273ffffffffffffffffffffffffffffffffffffffff1673ffffffffffffffffffffffffffffffffffffffff16815260200191505060206040518083038186803b158015611a6957600080fd5b9050614564818787878787615613565b96505050505050506000808473ffffffffffffffffffffffffffffffffffffffff168773ffffffffffffffffffffffffffffffffffffffff16146145aa578260006145ae565b6000835b91509150600060028b510389106145c557896145dd565b8b89600101815181106145d457fe5b60200260200101515b60408051600080825260208201928390527f022c0d9f000000000000000000000000000000000000000000000000000000008352602482018781526044830187905273ffffffffffffffffffffffffffffffffffffffff8086166064850152608060848501908152845160a48601819052969750908b169563022c0d9f958a958a958a9591949193919260c486019290918190849084905b8381101561468d578181015183820152602001614675565b50505050905090810190601f1680156146ba5780820380516001836020036101000a031916815260200191505b5095505050505050600060405180830381600087803b1580156146dc57600080fd5b505af11580156146f0573d6000803e3d6000fd5b50506001909a01995061443b98505050505050505050565b50505050565b600061475083836040518060400160405280601e81526020017f536166654d6174683a207375627472616374696f6e206f766572666c6f7700008152506157ae565b90505b92915050565b604080517f139ea39600000000000000000000000000000000000000000000000000000000815273ffffffffffffffffffffffffffffffffffffffff85811660048301528481166024830152838116604483015291517f00000000000000000000000000000000000000000000000000000000000000009092169163139ea39691606480820192602092909190829003018186803b1580156147fa57600080fd5b505afa15801561480e573d6000803e3d6000fd5b505050506040513d602081101561482457600080fd5b505161442957604080517f08c379a000000000000000000000000000000000000000000000000000000000815260206004820152601b60248201527f58595a53776170526f757465723a20494e56414c49445f504149520000000000604482015290519081900360640190fd5b6000806000806148a2898c8c61585f565b915091508160001480156148b4575080155b156148c4578793508692506149b8565b60006148d1898484615180565b905087811161493e5785811015614933576040517f08c379a0000000000000000000000000000000000000000000000000000000008152600401808060200182810382526024815260200180615e4e6024913960400191505060405180910390fd5b8894509250826149b6565b600061494b898486615180565b90508981111561495757fe5b878110156149b0576040517f08c379a0000000000000000000000000000000000000000000000000000000008152600401808060200182810382526024815260200180615f2c6024913960400191505060405180910390fd5b94508793505b505b505097509795505050505050565b6040805173ffffffffffffffffffffffffffffffffffffffff80861660248301528416604482015260648082018490528251808303909101815260849091019091526020810180517bffffffffffffffffffffffffffffffffffffffffffffffffffffffff167f23b872dd00000000000000000000000000000000000000000000000000000000179052614708908590615427565b6040805160008082526020820190925273ffffffffffffffffffffffffffffffffffffffff84169083906040518082805190602001908083835b60208310614ad257805182527fffffffffffffffffffffffffffffffffffffffffffffffffffffffffffffffe09092019160209182019101614a95565b6001836020036101000a03801982511681845116808217855250505050505090500191505060006040518083038185875af1925050503d8060008114614b34576040519150601f19603f3d011682016040523d82523d6000602084013e614b39565b606091505b5050905080614429576040517f08c379a0000000000000000000000000000000000000000000000000000000008152600401808060200182810382526023815260200180615f506023913960400191505060405180910390fd5b600281511015614c0457604080517f08c379a000000000000000000000000000000000000000000000000000000000815260206004820152601b60248201527f58595a53776170526f757465723a20494e56414c49445f504154480000000000604482015290519081900360640190fd5b6001815103825114614c61576040517f08c379a0000000000000000000000000000000000000000000000000000000008152600401808060200182810382526021815260200180615f0b6021913960400191505060405180910390fd5b60005b825181101561442957614cb4828281518110614c7c57fe5b6020026020010151838360010181518110614c9357fe5b6020026020010151858481518110614ca757fe5b6020026020010151614759565b600101614c64565b6060815167ffffffffffffffff81118015614cd657600080fd5b50604051908082528060200260200182016040528015614d00578160200160208202803683370190505b5090508381600081518110614d1157fe5b60200260200101818152505060005b6001835103811015614dd1576000806000806000614d7b898781518110614d4357fe5b6020026020010151898881518110614d5757fe5b60200260200101518a8960010181518110614d6e57fe5b60200260200101516154ff565b94509450945094509450614da6878781518110614d9457fe5b60200260200101518686868686615613565b878760010181518110614db557fe5b6020908102919091010152505060019093019250614d20915050565b509392505050565b60005b600183510381101561503157600080848381518110614df757fe5b6020026020010151858460010181518110614e0e57fe5b6020026020010151915091506000614e268383615260565b5090506000888560010181518110614e3a57fe5b602002602001015190506000808373ffffffffffffffffffffffffffffffffffffffff168673ffffffffffffffffffffffffffffffffffffffff1614614e8257826000614e86565b6000835b91509150600060028a51038810614e9d5788614eb5565b8a8860010181518110614eac57fe5b60200260200101515b90508a8881518110614ec357fe5b602002602001015173ffffffffffffffffffffffffffffffffffffffff1663022c0d9f848484600067ffffffffffffffff81118015614f0157600080fd5b506040519080825280601f01601f191660200182016040528015614f2c576020820181803683370190505b506040518563ffffffff1660e01b8152600401808581526020018481526020018373ffffffffffffffffffffffffffffffffffffffff1673ffffffffffffffffffffffffffffffffffffffff16815260200180602001828103825283818151815260200191508051906020019080838360005b83811015614fb7578181015183820152602001614f9f565b50505050905090810190601f168015614fe45780820380516001836020036101000a031916815260200191505b5095505050505050600060405180830381600087803b15801561500657600080fd5b505af115801561501a573d6000803e3d6000fd5b505060019099019850614ddc975050505050505050565b5050505050565b6060815167ffffffffffffffff8111801561505257600080fd5b5060405190808252806020026020018201604052801561507c578160200160208202803683370190505b509050838160018351038151811061509057fe5b602090810291909101015281517fffffffffffffffffffffffffffffffffffffffffffffffffffffffffffffffff015b8015614dd157600080600080600061510b8960018803815181106150e057fe5b60200260200101518960018903815181106150f757fe5b60200260200101518a8981518110614d6e57fe5b9450945094509450945061513687878151811061512457fe5b6020026020010151868686868661593d565b87600188038151811061514557fe5b602090810291909101015250507fffffffffffffffffffffffffffffffffffffffffffffffffffffffffffffffff90930192506150c0915050565b60008084116151da576040517f08c379a0000000000000000000000000000000000000000000000000000000008152600401808060200182810382526023815260200180615e026023913960400191505060405180910390fd5b6000831180156151ea5750600082115b61523f576040517f08c379a0000000000000000000000000000000000000000000000000000000008152600401808060200182810382526026815260200180615f9d6026913960400191505060405180910390fd5b82615250858463ffffffff615ac916565b8161525757fe5b04949350505050565b6000808273ffffffffffffffffffffffffffffffffffffffff168473ffffffffffffffffffffffffffffffffffffffff1614156152e8576040517f08c379a0000000000000000000000000000000000000000000000000000000008152600401808060200182810382526023815260200180615ddf6023913960400191505060405180910390fd5b8273ffffffffffffffffffffffffffffffffffffffff168473ffffffffffffffffffffffffffffffffffffffff1610615322578284615325565b83835b909250905073ffffffffffffffffffffffffffffffffffffffff82166153ac57604080517f08c379a000000000000000000000000000000000000000000000000000000000815260206004820152601c60248201527f58595a537761704c6962726172793a205a45524f5f4144445245535300000000604482015290519081900360640190fd5b9250929050565b60008282018381101561475057604080517f08c379a000000000000000000000000000000000000000000000000000000000815260206004820152601b60248201527f536166654d6174683a206164646974696f6e206f766572666c6f770000000000604482015290519081900360640190fd5b6060615489826040518060400160405280602081526020017f5361666545524332303a206c6f772d6c6576656c2063616c6c206661696c65648152508573ffffffffffffffffffffffffffffffffffffffff16615b3c9092919063ffffffff16565b805190915015614429578080602001905160208110156154a857600080fd5b5051614429576040517f08c379a000000000000000000000000000000000000000000000000000000000815260040180806020018281038252602a815260200180615f73602a913960400191505060405180910390fd5b6000806000806000806155128888615260565b5090506000806000808c73ffffffffffffffffffffffffffffffffffffffff1663d66940276040518163ffffffff1660e01b815260040160a06040518083038186803b15801561556157600080fd5b505afa158015615575573d6000803e3d6000fd5b505050506040513d60a081101561558b57600080fd5b50805160208201516040830151606084015160809094015199506dffffffffffffffffffffffffffff928316975090821695508116935016905073ffffffffffffffffffffffffffffffffffffffff8c8116908616146155ee57828482846155f3565b838383835b809a50819b50829c50839d50505050505050505050939792965093509350565b600080871161566d576040517f08c379a0000000000000000000000000000000000000000000000000000000008152600401808060200182810382526029815260200180615e976029913960400191505060405180910390fd5b60008611801561567d5750600085115b6156d2576040517f08c379a0000000000000000000000000000000000000000000000000000000008152600401808060200182810382526026815260200180615f9d6026913960400191505060405180910390fd5b600061570c670de0b6b3a76400006157006156f3828763ffffffff61470e16565b8b9063ffffffff615ac916565b9063ffffffff615b4b16565b90506000615720828663ffffffff615ac916565b90506000615734878463ffffffff6153b316565b9050615746828263ffffffff615b4b16565b9350838810156157a1576040517f08c379a0000000000000000000000000000000000000000000000000000000008152600401808060200182810382526026815260200180615f9d6026913960400191505060405180910390fd5b5050509695505050505050565b60008184841115615857576040517f08c379a00000000000000000000000000000000000000000000000000000000081526004018080602001828103825283818151815260200191508051906020019080838360005b8381101561581c578181015183820152602001615804565b50505050905090810190601f1680156158495780820380516001836020036101000a031916815260200191505b509250505060405180910390fd5b505050900390565b600080600061586e8585615260565b5090506000808773ffffffffffffffffffffffffffffffffffffffff16630902f1ac6040518163ffffffff1660e01b815260040160606040518083038186803b1580156158ba57600080fd5b505afa1580156158ce573d6000803e3d6000fd5b505050506040513d60608110156158e457600080fd5b5080516020909101516dffffffffffffffffffffffffffff918216935016905073ffffffffffffffffffffffffffffffffffffffff8781169084161461592b57808261592e565b81815b90999098509650505050505050565b6000808711615997576040517f08c379a000000000000000000000000000000000000000000000000000000000815260040180806020018281038252602a815260200180615ec0602a913960400191505060405180910390fd5b6000861180156159a75750868510155b80156159b257508683115b615a07576040517f08c379a0000000000000000000000000000000000000000000000000000000008152600401808060200182810382526026815260200180615f9d6026913960400191505060405180910390fd5b6000615a19858963ffffffff615ac916565b90506000615a2d858a63ffffffff61470e16565b9050615a506001615a44848463ffffffff615b4b16565b9063ffffffff6153b316565b9250615a6a83670de0b6b3a764000063ffffffff615ac916565b9150615a84670de0b6b3a76400008563ffffffff61470e16565b9050615abc81615700847fffffffffffffffffffffffffffffffffffffffffffffffffffffffffffffffff830163ffffffff6153b316565b9998505050505050505050565b600082615ad857506000614753565b82820282848281615ae557fe5b0414614750576040517f08c379a0000000000000000000000000000000000000000000000000000000008152600401808060200182810382526021815260200180615eea6021913960400191505060405180910390fd5b6060612efc8484600085615b8d565b600061475083836040518060400160405280601a81526020017f536166654d6174683a206469766973696f6e206279207a65726f000000000000815250615d59565b6060615b9885615dd8565b615c0357604080517f08c379a000000000000000000000000000000000000000000000000000000000815260206004820152601d60248201527f416464726573733a2063616c6c20746f206e6f6e2d636f6e7472616374000000604482015290519081900360640190fd5b600060608673ffffffffffffffffffffffffffffffffffffffff1685876040518082805190602001908083835b60208310615c6d57805182527fffffffffffffffffffffffffffffffffffffffffffffffffffffffffffffffe09092019160209182019101615c30565b6001836020036101000a03801982511681845116808217855250505050505090500191505060006040518083038185875af1925050503d8060008114615ccf576040519150601f19603f3d011682016040523d82523d6000602084013e615cd4565b606091505b50915091508115615ce8579150612efc9050565b805115615cf85780518082602001fd5b6040517f08c379a000000000000000000000000000000000000000000000000000000000815260206004820181815286516024840152865187939192839260440191908501908083836000831561581c578181015183820152602001615804565b60008183615dc2576040517f08c379a000000000000000000000000000000000000000000000000000000000815260206004820181815283516024840152835190928392604490910191908501908083836000831561581c578181015183820152602001615804565b506000838581615dce57fe5b0495945050505050565b3b15159056fe58595a537761704c6962726172793a204944454e544943414c5f41444452455353455358595a537761704c6962726172793a20494e53554646494349454e545f414d4f554e5458595a53776170526f757465723a20494e53554646494349454e545f4f55545055545f414d4f554e5458595a53776170526f757465723a20494e53554646494349454e545f425f414d4f554e5458595a53776170526f757465723a204558434553534956455f494e5055545f414d4f554e5458595a537761704c6962726172793a20494e53554646494349454e545f494e5055545f414d4f554e5458595a537761704c6962726172793a20494e53554646494349454e545f4f55545055545f414d4f554e54536166654d6174683a206d756c7469706c69636174696f6e206f766572666c6f7758595a53776170526f757465723a20494e56414c49445f50414952535f5041544858595a53776170526f757465723a20494e53554646494349454e545f415f414d4f554e545472616e7366657248656c7065723a204554485f5452414e534645525f4641494c45445361666545524332303a204552433230206f7065726174696f6e20646964206e6f74207375636365656458595a537761704c6962726172793a20494e53554646494349454e545f4c4951554944495459a26469706673582212208ec495e537225fb45bc0fe1a1fc8a93f086e5041d555bd31028e258699ab63df64736f6c63430006060033",
  "linkReferences": {},
  "deployedLinkReferences": {}
}